S01700004763634170706C69636174696F6E362E7372656356
S11300000C9434000C9451000C9451000C94510045
S11300100C9451000C9451000C9451000C94510018
S11300200C9451000C9451000C9451000C94510008
S11300300C9451000C9451000C9453000C945100F6
S11300400C9451000C9451000C9451000C945100E8
S11300500C9451000C9451000C9451000C945100D8
S11300600C9451000C94510011241FBECFEFD8E022
S1130070DEBFCDBF11E0A0E0B1E0EAE5F2E002C0EE
S113008005900D92AA30B107D9F721E0AAE0B1E0BA
S113009001C01D92A031B207E1F70E94E0000C9468
S11300A02B010C9400001F920F920FB60F92112493
S11300B08F93EF93FF9380910A018F5F80930A01DE
S11300C0823099F018F4813031F02EC08330B9F0C9
S11300D08430F9F029C0E0910F01F0E0E050FF4FC7
S11300E080818BB9289A2B981FC0E0910B01F0E016
S11300F0E050FF4F80818BB9299A289815C0E09170
S11301000C01F0E0E050FF4F80818BB92A9A2998C6
S11301100BC0E0910E01F0E0E050FF4F80818BB9FD
S11301202B9A2A9810920A01FF91EF918F910F90C8
S11301300FBE0F901F901895CF93DF931F92CDB7EA
S1130140DEB78983F894898190E028EE33E0B90121
S11301500E94030160930F01898190E0B9010E941C
S1130160030164E670E00E94030160930B0189813E
S113017099E2899F912D112492959F7024E6929F74
S113018080191124982F8DEC989F912D1124969508
S11301909695969590930C012981289F812D112481
S11301A0869586958695880F982F990F990F890FB4
S11301B0281B20930E0178940F90DF91CF9108951E
S11301C084B5807484BD84B5886084BD84B5826040
S11301D084BDEEE6F0E08081826080838FEF8AB98F
S11301E08BB984B18F6084B9289829982A982B9860
S11301F085EC80930D017894000080910D010E949C
S11302009C000000F9CF97FB072E16F4009407D04A
S113021077FD09D00E94170107FC05D03EF49095A4
S113022081959F4F0895709561957F4F0895AA1BFE
S1130230BB1B51E107C0AA1FBB1FA617B70710F0CD
S1130240A61BB70B881F991F5A95A9F780959095FF
S10D0250BC01CD010895F894FFCF1E
S10D025A1073242143818033000156
S9030000FC
